{"abi":[{"type":"constructor","inputs":[{"name":"_revocationRegistry","type":"address","internalType":"address"},{"name":"_oracle","type":"address","internalType":"address"},{"name":"name_","type":"string","internalType":"string"},{"name":"symbol_","type":"string","internalType":"string"}],"stateMutability":"nonpayable"},{"type":"function","name":"DOMAIN_SEPARATOR","inputs":[],"outputs":[{"name":"","type":"bytes32","internalType":"bytes32"}],"stateMutability":"view"},{"type":"function","name":"MAX_ROLE_BYTES","inputs":[],"outputs":[{"name":"","type":"uint256","internalType":"uint256"}],"stateMutability":"view"},{"type":"function","name":"MAX_ROYALTY_BPS","inputs":[],"outputs":[{"name":"","type":"uint16","internalType":"uint16"}],"stateMutability":"view"},{"type":"function","name":"MAX_WRAPPED_DEK_BYTES","inputs":[],"outputs":[{"name":"","type":"uint256","internalType":"uint256"}],"stateMutability":"view"},{"type":"function","name":"acceptOwnership","inputs":[],"outputs":[],"stateMutability":"nonpayable"},{"type":"function","name":"approve","inputs":[{"name":"","type":"address","internalType":"address"},{"name":"","type":"uint256","internalType":"uint256"}],"outputs":[],"stateMutability":"pure"},{"type":"function","name":"authorizeUsage","inputs":[{"name":"tokenId","type":"uint256","internalType":"uint256"},{"name":"user","type":"address","internalType":"address"},{"name":"allowed","type":"bool","internalType":"bool"}],"outputs":[],"stateMutability":"nonpayable"},{"type":"function","name":"balanceOf","inputs":[{"name":"owner","type":"address","internalType":"address"}],"outputs":[{"name":"","type":"uint256","internalType":"uint256"}],"stateMutability":"view"},{"type":"function","name":"getAgent","inputs":[{"name":"tokenId","type":"uint256","internalType":"uint256"}],"outputs":[{"name":"","type":"tuple","internalType":"struct IAgentNFT.Agent","components":[{"name":"metadataHash","type":"bytes32","internalType":"bytes32"},{"name":"encryptedPointer","type":"bytes32","internalType":"bytes32"},{"name":"wrappedDEK","type":"bytes","internalType":"bytes"},{"name":"mintedAt","type":"uint64","internalType":"uint64"},{"name":"royaltyBps","type":"uint16","internalType":"uint16"},{"name":"revoked","type":"bool","internalType":"bool"},{"name":"role","type":"string","internalType":"string"}]}],"stateMutability":"view"},{"type":"function","name":"getApproved","inputs":[{"name":"tokenId","type":"uint256","internalType":"uint256"}],"outputs":[{"name":"","type":"address","internalType":"address"}],"stateMutability":"view"},{"type":"function","name":"isApprovedForAll","inputs":[{"name":"owner","type":"address","internalType":"address"},{"name":"operator","type":"address","internalType":"address"}],"outputs":[{"name":"","type":"bool","internalType":"bool"}],"stateMutability":"view"},{"type":"function","name":"mint","inputs":[{"name":"to","type":"address","internalType":"address"},{"name":"role","type":"string","internalType":"string"},{"name":"metadataHash","type":"bytes32","internalType":"bytes32"},{"name":"encryptedPointer","type":"bytes32","internalType":"bytes32"},{"name":"wrappedDEK","type":"bytes","internalType":"bytes"},{"name":"royaltyBps","type":"uint16","internalType":"uint16"}],"outputs":[{"name":"tokenId","type":"uint256","internalType":"uint256"}],"stateMutability":"nonpayable"},{"type":"function","name":"name","inputs":[],"outputs":[{"name":"","type":"string","internalType":"string"}],"stateMutability":"view"},{"type":"function","name":"oracle","inputs":[],"outputs":[{"name":"","type":"address","internalType":"address"}],"stateMutability":"view"},{"type":"function","name":"owner","inputs":[],"outputs":[{"name":"","type":"address","internalType":"address"}],"stateMutability":"view"},{"type":"function","name":"ownerOf","inputs":[{"name":"tokenId","type":"uint256","internalType":"uint256"}],"outputs":[{"name":"","type":"address","internalType":"address"}],"stateMutability":"view"},{"type":"function","name":"pendingOwner","inputs":[],"outputs":[{"name":"","type":"address","internalType":"address"}],"stateMutability":"view"},{"type":"function","name":"recordUsage","inputs":[{"name":"tokenId","type":"uint256","internalType":"uint256"},{"name":"payer","type":"address","internalType":"address"},{"name":"amount","type":"uint256","internalType":"uint256"}],"outputs":[],"stateMutability":"nonpayable"},{"type":"function","name":"renounceOwnership","inputs":[],"outputs":[],"stateMutability":"nonpayable"},{"type":"function","name":"revocationRegistry","inputs":[],"outputs":[{"name":"","type":"address","internalType":"address"}],"stateMutability":"view"},{"type":"function","name":"revoke","inputs":[{"name":"tokenId","type":"uint256","internalType":"uint256"},{"name":"oldKeyHash","type":"bytes32","internalType":"bytes32"},{"name":"oracleProof","type":"bytes","internalType":"bytes"}],"outputs":[],"stateMutability":"nonpayable"},{"type":"function","name":"safeTransferFrom","inputs":[{"name":"from","type":"address","internalType":"address"},{"name":"to","type":"address","internalType":"address"},{"name":"tokenId","type":"uint256","internalType":"uint256"}],"outputs":[],"stateMutability":"nonpayable"},{"type":"function","name":"safeTransferFrom","inputs":[{"name":"","type":"address","internalType":"address"},{"name":"","type":"address","internalType":"address"},{"name":"","type":"uint256","internalType":"uint256"},{"name":"","type":"bytes","internalType":"bytes"}],"outputs":[],"stateMutability":"pure"},{"type":"function","name":"setApprovalForAll","inputs":[{"name":"","type":"address","internalType":"address"},{"name":"","type":"bool","internalType":"bool"}],"outputs":[],"stateMutability":"pure"},{"type":"function","name":"setOracle","inputs":[{"name":"newOracle","type":"address","internalType":"address"}],"outputs":[],"stateMutability":"nonpayable"},{"type":"function","name":"supportsInterface","inputs":[{"name":"interfaceId","type":"bytes4","internalType":"bytes4"}],"outputs":[{"name":"","type":"bool","internalType":"bool"}],"stateMutability":"view"},{"type":"function","name":"symbol","inputs":[],"outputs":[{"name":"","type":"string","internalType":"string"}],"stateMutability":"view"},{"type":"function","name":"tokenNonce","inputs":[{"name":"","type":"uint256","internalType":"uint256"}],"outputs":[{"name":"","type":"uint256","internalType":"uint256"}],"stateMutability":"view"},{"type":"function","name":"tokenURI","inputs":[{"name":"tokenId","type":"uint256","internalType":"uint256"}],"outputs":[{"name":"","type":"string","internalType":"string"}],"stateMutability":"view"},{"type":"function","name":"transferFrom","inputs":[{"name":"","type":"address","internalType":"address"},{"name":"","type":"address","internalType":"address"},{"name":"","type":"uint256","internalType":"uint256"}],"outputs":[],"stateMutability":"pure"},{"type":"function","name":"transferOwnership","inputs":[{"name":"newOwner","type":"address","internalType":"address"}],"outputs":[],"stateMutability":"nonpayable"},{"type":"function","name":"transferWithReencryption","inputs":[{"name":"to","type":"address","internalType":"address"},{"name":"tokenId","type":"uint256","internalType":"uint256"},{"name":"newPointer","type":"bytes32","internalType":"bytes32"},{"name":"newWrappedDEK","type":"bytes","internalType":"bytes"},{"name":"oracleProof","type":"bytes","internalType":"bytes"}],"outputs":[],"stateMutability":"nonpayable"},{"type":"function","name":"usageAuthorized","inputs":[{"name":"","type":"uint256","internalType":"uint256"},{"name":"","type":"address","internalType":"address"}],"outputs":[{"name":"","type":"bool","internalType":"bool"}],"stateMutability":"view"},{"type":"event","name":"Approval","inputs":[{"name":"owner","type":"address","indexed":true,"internalType":"address"},{"name":"approved","type":"address","indexed":true,"internalType":"address"},{"name":"tokenId","type":"uint256","indexed":true,"internalType":"uint256"}],"anonymous":false},{"type":"event","name":"ApprovalForAll","inputs":[{"name":"owner","type":"address","indexed":true,"internalType":"address"},{"name":"operator","type":"address","indexed":true,"internalType":"address"},{"name":"approved","type":"bool","indexed":false,"internalType":"bool"}],"anonymous":false},{"type":"event","name":"Minted","inputs":[{"name":"tokenId","type":"uint256","indexed":true,"internalType":"uint256"},{"name":"owner","type":"address","indexed":true,"internalType":"address"},{"name":"role","type":"string","indexed":false,"internalType":"string"},{"name":"metadataHash","type":"bytes32","indexed":false,"internalType":"bytes32"}],"anonymous":false},{"type":"event","name":"OracleChanged","inputs":[{"name":"previousOracle","type":"address","indexed":true,"internalType":"address"},{"name":"newOracle","type":"address","indexed":true,"internalType":"address"}],"anonymous":false},{"type":"event","name":"OwnershipTransferStarted","inputs":[{"name":"previousOwner","type":"address","indexed":true,"internalType":"address"},{"name":"newOwner","type":"address","indexed":true,"internalType":"address"}],"anonymous":false},{"type":"event","name":"OwnershipTransferred","inputs":[{"name":"previousOwner","type":"address","indexed":true,"internalType":"address"},{"name":"newOwner","type":"address","indexed":true,"internalType":"address"}],"anonymous":false},{"type":"event","name":"Revoked","inputs":[{"name":"tokenId","type":"uint256","indexed":true,"internalType":"uint256"},{"name":"revokedBy","type":"address","indexed":true,"internalType":"address"}],"anonymous":false},{"type":"event","name":"Transfer","inputs":[{"name":"from","type":"address","indexed":true,"internalType":"address"},{"name":"to","type":"address","indexed":true,"internalType":"address"},{"name":"tokenId","type":"uint256","indexed":true,"internalType":"uint256"}],"anonymous":false},{"type":"event","name":"Transferred","inputs":[{"name":"tokenId","type":"uint256","indexed":true,"internalType":"uint256"},{"name":"from","type":"address","indexed":true,"internalType":"address"},{"name":"to","type":"address","indexed":true,"internalType":"address"},{"name":"newPointer","type":"bytes32","indexed":false,"internalType":"bytes32"}],"anonymous":false},{"type":"event","name":"UsageAuthorizationChanged","inputs":[{"name":"tokenId","type":"uint256","indexed":true,"internalType":"uint256"},{"name":"user","type":"address","indexed":true,"internalType":"address"},{"name":"allowed","type":"bool","indexed":false,"internalType":"bool"}],"anonymous":false},{"type":"event","name":"UsageRecorded","inputs":[{"name":"tokenId","type":"uint256","indexed":true,"internalType":"uint256"},{"name":"payer","type":"address","indexed":true,"internalType":"address"},{"name":"amount","type":"uint256","indexed":false,"internalType":"uint256"},{"name":"royaltyBps","type":"uint16","indexed":false,"internalType":"uint16"}],"anonymous":false},{"type":"error","name":"DataHashMismatch","inputs":[{"name":"expected","type":"bytes32","internalType":"bytes32"},{"name":"got","type":"bytes32","internalType":"bytes32"}]},{"type":"error","name":"ERC721IncorrectOwner","inputs":[{"name":"sender","type":"address","internalType":"address"},{"name":"tokenId","type":"uint256","internalType":"uint256"},{"name":"owner","type":"address","internalType":"address"}]},{"type":"error","name":"ERC721InsufficientApproval","inputs":[{"name":"operator","type":"address","internalType":"address"},{"name":"tokenId","type":"uint256","internalType":"uint256"}]},{"type":"error","name":"ERC721InvalidApprover","inputs":[{"name":"approver","type":"address","internalType":"address"}]},{"type":"error","name":"ERC721InvalidOperator","inputs":[{"name":"operator","type":"address","internalType":"address"}]},{"type":"error","name":"ERC721InvalidOwner","inputs":[{"name":"owner","type":"address","internalType":"address"}]},{"type":"error","name":"ERC721InvalidReceiver","inputs":[{"name":"receiver","type":"address","internalType":"address"}]},{"type":"error","name":"ERC721InvalidSender","inputs":[{"name":"sender","type":"address","internalType":"address"}]},{"type":"error","name":"ERC721NonexistentToken","inputs":[{"name":"tokenId","type":"uint256","internalType":"uint256"}]},{"type":"error","name":"FromMismatch","inputs":[{"name":"expected","type":"address","internalType":"address"},{"name":"got","type":"address","internalType":"address"}]},{"type":"error","name":"InvalidMetadataHash","inputs":[]},{"type":"error","name":"InvalidNonce","inputs":[{"name":"expected","type":"uint256","internalType":"uint256"},{"name":"got","type":"uint256","internalType":"uint256"}]},{"type":"error","name":"InvalidOracle","inputs":[]},{"type":"error","name":"InvalidOracleProof","inputs":[]},{"type":"error","name":"InvalidRecipient","inputs":[]},{"type":"error","name":"InvalidRevocationRegistry","inputs":[]},{"type":"error","name":"MalformedSignature","inputs":[{"name":"length","type":"uint256","internalType":"uint256"}]},{"type":"error","name":"NotTokenOwner","inputs":[{"name":"tokenId","type":"uint256","internalType":"uint256"},{"name":"caller","type":"address","internalType":"address"}]},{"type":"error","name":"OwnableInvalidOwner","inputs":[{"name":"owner","type":"address","internalType":"address"}]},{"type":"error","name":"OwnableUnauthorizedAccount","inputs":[{"name":"account","type":"address","internalType":"address"}]},{"type":"error","name":"PointerMismatch","inputs":[{"name":"expected","type":"bytes32","internalType":"bytes32"},{"name":"got","type":"bytes32","internalType":"bytes32"}]},{"type":"error","name":"ReentrancyGuardReentrantCall","inputs":[]},{"type":"error","name":"RoleTooLong","inputs":[{"name":"length","type":"uint256","internalType":"uint256"}]},{"type":"error","name":"RoyaltyTooHigh","inputs":[{"name":"royaltyBps","type":"uint16","internalType":"uint16"}]},{"type":"error","name":"StringsInsufficientHexLength","inputs":[{"name":"value","type":"uint256","internalType":"uint256"},{"name":"length","type":"uint256","internalType":"uint256"}]},{"type":"error","name":"ToMismatch","inputs":[{"name":"expected","type":"address","internalType":"address"},{"name":"got","type":"address","internalType":"address"}]},{"type":"error","name":"TokenDoesNotExist","inputs":[{"name":"tokenId","type":"uint256","internalType":"uint256"}]},{"type":"error","name":"TokenIdMismatch","inputs":[{"name":"expected","type":"uint256","internalType":"uint256"},{"name":"got","type":"uint256","internalType":"uint256"}]},{"type":"error","name":"TokenRevoked","inputs":[{"name":"tokenId","type":"uint256","internalType":"uint256"}]},{"type":"error","name":"UsageNotAuthorized","inputs":[{"name":"tokenId","type":"uint256","internalType":"uint256"},{"name":"caller","type":"address","internalType":"address"}]},{"type":"error","name":"UseTransferWithReencryption","inputs":[]},{"type":"error","name":"WrappedDEKTooLarge","inputs":[{"name":"length","type":"uint256","internalType":"uint256"}]},{"type":"error","name":"WrongOracleAction","inputs":[{"name":"expected","type":"uint8","internalType":"enum IAgentNFT.OracleAction"},{"name":"got","type":"uint8","internalType":"enum IAgentNFT.OracleAction"}]}],"bytecode":{"object":"0x60e06040526001600d5534801562000015575f80fd5b5060405162002ed038038062002ed0833981016040819052620000389162000378565b3382825f6200004883826200048d565b5060016200005782826200048d565b5050506001600160a01b0381166200008857604051631e4fbdf760e01b81525f600482015260240160405180910390fd5b62000093816200022c565b5060016008556001600160a01b038416620000c15760405163320c15b160e01b815260040160405180910390fd5b6001600160a01b038316620000e957604051639589a27d60e01b815260040160405180910390fd5b6001600160a01b03848116608052600980546001600160a01b03191691851691821790556040515f907f05cd89403c6bdeac21c2ff33de395121a31fa1bc2bf3adf4825f1f86e79969dd908290a34660c0818152604080518082018252601681527f536f7665726569676e436c6177204167656e744e4654000000000000000000006020918201528151808301835260018152603160f81b9082015281517f8b73c3c69bb8fe3d512ecc4cf759cc79239f7b179b0ffacaa9a75d522b39400f818301527f15632804c45c4da1a0042719e2ed86de5b4e2c381119e7f221b5b908a1cacdde818401527fc89efdaa54c0f20c7adf612882df0950f5a951637e0307cdcb4c672f298b8bc6606082015260808101949094523060a08086019190915282518086039091018152939092019052815191012060a052506200055992505050565b600780546001600160a01b031916905562000247816200024a565b50565b600680546001600160a01b038381166001600160a01b0319831681179093556040519116919082907f8be0079c531659141344cd1fd0a4f28419497f9722a3daafe3b4186f6b6457e0905f90a35050565b80516001600160a01b0381168114620002b2575f80fd5b919050565b634e487b7160e01b5f52604160045260245ffd5b5f82601f830112620002db575f80fd5b81516001600160401b0380821115620002f857620002f8620002b7565b604051601f8301601f19908116603f01168101908282118183101715620003235762000323620002b7565b816040528381526020925086602085880101111562000340575f80fd5b5f91505b8382101562000363578582018301518183018401529082019062000344565b5f602085830101528094505050505092915050565b5f805f80608085870312156200038c575f80fd5b62000397856200029b565b9350620003a7602086016200029b565b60408601519093506001600160401b0380821115620003c4575f80fd5b620003d288838901620002cb565b93506060870151915080821115620003e8575f80fd5b50620003f787828801620002cb565b91505092959194509250565b600181811c908216806200041857607f821691505b6020821081036200043757634e487b7160e01b5f52602260045260245ffd5b50919050565b601f8211156200048857805f5260205f20601f840160051c81016020851015620004645750805b601f840160051c820191505b8181101562000485575f815560010162000470565b50505b505050565b81516001600160401b03811115620004a957620004a9620002b7565b620004c181620004ba845462000403565b846200043d565b602080601f831160018114620004f7575f8415620004df5750858301515b5f19600386901b1c1916600185901b17855562000551565b5f85815260208120601f198616915b82811015620005275788860151825594840194600190910190840162000506565b50858210156200054557878501515f19600388901b60f8161c191681555b505060018460011b0185555b505050505050565b60805160a05160c0516129456200058b5f395f6108ae01525f6108d601525f818161046f0152610dca01526129455ff3fe608060405234801561000f575f80fd5b50600436106101f2575f3560e01c80637adbf97311610114578063b74078ee116100a9578063e30c397811610079578063e30c39781461043e578063e83e1e131461044f578063e985e9c514610457578063f0f2740d1461046a578063f2fde38b14610491575f80fd5b8063b74078ee14610401578063b88d4fde14610414578063c87b56dd14610422578063e19734c114610435575f80fd5b80638da5cb5b116100e45780638da5cb5b146103c757806395d89b41146103d8578063a22cb465146103e0578063a656be53146103ee575f80fd5b80637adbf9731461037b5780637dc0d1d01461038e5780638320085d146103a157806389b4b87a146103b4575f80fd5b80633dca40e61161018a5780636352211e1161015a5780636352211e1461034557806370a0823114610358578063715018a61461036b57806379ba509714610373575f80fd5b80633dca40e6146102ca57806342842e0e146102e65780634cad0f67146102f95780635ddf909614610318575f80fd5b806321f864a5116101c557806321f864a51461027357806323b872dd146102865780632de5aaf7146102945780633644e515146102b4575f80fd5b806301ffc9a7146101f657806306fdde031461021e578063081812fc14610233578063095ea7b31461025e575b5f80fd5b610209610204366004611efd565b6104a4565b60405190151581526020015b60405180910390f35b6102266104f5565b6040516102159190611f65565b610246610241366004611f77565b610584565b6040516001600160a01b039091168152602001610215565b61027161026c366004611fa9565b6105ab565b005b610271610281366004611fd1565b6105c4565b61027161026c366004612003565b6102a76102a2366004611f77565b6106db565b604051610215919061202c565b6102bc6108ab565b604051908152602001610215565b6102d361271081565b60405161ffff9091168152602001610215565b6102716102f4366004612003565b6109d6565b6102bc610307366004611f77565b600b6020525f908152604090205481565b6102096103263660046120af565b600c60209081525f928352604080842090915290825290205460ff1681565b610246610353366004611f77565b6109f0565b6102bc6103663660046120d9565b6109fa565b610271610a3f565b610271610a52565b6102716103893660046120d9565b610a96565b600954610246906001600160a01b031681565b6102716103af366004612136565b610b16565b6102716103c23660046121c2565b610cbf565b6006546001600160a01b0316610246565b610226610e69565b61027161026c36600461221f565b6102bc6103fc366004612247565b610e78565b61027161040f3660046122ec565b6110f8565b61027161026c3660046123ea565b610226610430366004611f77565b6111a1565b6102bc61080081565b6007546001600160a01b0316610246565b6102bc604081565b61020961046536600461244d565b6111f1565b6102467f000000000000000000000000000000000000000000000000000000000000000081565b61027161049f3660046120d9565b61121e565b5f6001600160e01b031982166380ac58cd60e01b14806104d457506001600160e01b03198216635b5e139f60e01b145b806104ef57506301ffc9a760e01b6001600160e01b03198316145b92915050565b60605f805461050390612475565b80601f016020809104026020016040519081016040528092919081815260200182805461052f90612475565b801561057a5780601f106105515761010080835404028352916020019161057a565b820191905f5260205f20905b81548152906001019060200180831161055d57829003601f168201915b5050505050905090565b5f61058e8261128f565b505f828152600460205260409020546001600160a01b03166104ef565b60405163181e465560e01b815260040160405180910390fd5b6105cc6112c7565b5f6105d68461128f565b5f858152600a60205260409020600381015491925090600160501b900460ff161561061c5760405163dd1d49eb60e01b8152600481018690526024015b60405180910390fd5b336001600160a01b0383161480159061064e57505f858152600c6020908152604080832033845290915290205460ff16155b1561067557604051630217924f60e51b815260048101869052336024820152604401610613565b600381015460408051858152600160401b90920461ffff1660208301526001600160a01b0386169187917f8e6892806b763f544146738f160c556ada651c3ebe0f4311e05ae8d3314caa87910160405180910390a350506106d66001600855565b505050565b6040805160e0810182525f8082526020820181905260609282018390528282018190526080820181905260a082015260c081019190915261071b8261128f565b50600a5f8381526020019081526020015f206040518060e00160405290815f82015481526020016001820154815260200160028201805461075b90612475565b80601f016020809104026020016040519081016040528092919081815260200182805461078790612475565b80156107d25780601f106107a9576101008083540402835291602001916107d2565b820191905f5260205f20905b8154815290600101906020018083116107b557829003601f168201915b505050918352505060038201546001600160401b0381166020830152600160401b810461ffff166040830152600160501b900460ff161515606082015260048201805460809092019161082490612475565b80601f016020809104026020016040519081016040528092919081815260200182805461085090612475565b801561089b5780601f106108725761010080835404028352916020019161089b565b820191905f5260205f20905b81548152906001019060200180831161087e57829003601f168201915b5050505050815250509050919050565b5f7f000000000000000000000000000000000000000000000000000000000000000046036108f857507f000000000000000000000000000000000000000000000000000000000000000090565b50604080518082018252601681527514dbdd995c995a59db90db185dc81059d95b9d13919560521b6020918201528151808301835260018152603160f81b9082015281517f8b73c3c69bb8fe3d512ecc4cf759cc79239f7b179b0ffacaa9a75d522b39400f818301527f15632804c45c4da1a0042719e2ed86de5b4e2c381119e7f221b5b908a1cacdde818401527fc89efdaa54c0f20c7adf612882df0950f5a951637e0307cdcb4c672f298b8bc660608201524660808201523060a0808301919091528351808303909101815260c0909101909252815191012090565b6106d683838360405180602001604052805f8152506105ab565b5f6104ef8261128f565b5f6001600160a01b038216610a24576040516322718ad960e21b81525f6004820152602401610613565b506001600160a01b03165f9081526003602052604090205490565b610a476112f1565b610a505f61131e565b565b60075433906001600160a01b03168114610a8a5760405163118cdaa760e01b81526001600160a01b0382166004820152602401610613565b610a938161131e565b50565b610a9e6112f1565b6001600160a01b038116610ac557604051639589a27d60e01b815260040160405180910390fd5b600980546001600160a01b038381166001600160a01b0319831681179093556040519116919082907f05cd89403c6bdeac21c2ff33de395121a31fa1bc2bf3adf4825f1f86e79969dd905f90a35050565b610b1e6112c7565b6001600160a01b038716610b4557604051634e46966960e11b815260040160405180910390fd5b610800831115610b6b5760405163a10172fb60e01b815260048101849052602401610613565b5f610b758761128f565b90506001600160a01b0381163314610ba957604051630da7a30b60e31b815260048101889052336024820152604401610613565b5f878152600a602052604090206003810154600160501b900460ff1615610be65760405163dd1d49eb60e01b815260048101899052602401610613565b5f610bf3848601866124bb565b90505f8787604051610c0692919061257e565b60405180910390209050610c1f825f8c878f8e87611337565b6001830189905560028301610c35888a836125d1565b5060c08201515f8b8152600b6020526040902060019091019055610c5a848c8c61169c565b8a6001600160a01b0316846001600160a01b03168b7f3cd346e541018c0a5e0a0ba5cae74634bf0d5ae1e416192e4dd3886f4513b6b78c604051610ca091815260200190565b60405180910390a450505050610cb66001600855565b50505050505050565b610cc76112c7565b5f610cd18561128f565b90506001600160a01b0381163314610d0557604051630da7a30b60e31b815260048101869052336024820152604401610613565b5f858152600a602052604090206003810154600160501b900460ff1615610d425760405163dd1d49eb60e01b815260048101879052602401610613565b5f610d4f848601866124bb565b9050610d618160018986805f8c611337565b60038201805460ff60501b1916600160501b179055610d83600283015f611e9e565b60c08101515f888152600b602052604090819020600190920190915551631db4952d60e01b815260048101889052602481018790526001600160a01b0384811660448301527f00000000000000000000000000000000000000000000000000000000000000001690631db4952d906064015f604051808303815f87803b158015610e0b575f80fd5b505af1158015610e1d573d5f803e3d5ffd5b50506040516001600160a01b03861692508991507f0819476e55ffbe23df64353d5f7898429609397cc93c44300b058b51648f7878905f90a3505050610e636001600855565b50505050565b60606001805461050390612475565b5f6001600160a01b038916610ea057604051634e46966960e11b815260040160405180910390fd5b85610ebe5760405163fac5ca3360e01b815260040160405180910390fd5b61271061ffff83161115610eeb576040516314df3fa960e31b815261ffff83166004820152602401610613565b610800831115610f115760405163a10172fb60e01b815260048101849052602401610613565b6040871115610f3657604051635a4c8ab960e01b815260048101889052602401610613565b600d8054905f610f458361269e565b9190505590506040518060e0016040528087815260200186815260200185858080601f0160208091040260200160405190810160405280939291908181526020018383808284375f9201829052509385525050506001600160401b03421660208084019190915261ffff861660408085019190915260608401929092528151601f8c018290048202810182019092528a82526080909201918b908b90819084018382808284375f920182905250939094525050838152600a60209081526040918290208451815590840151600182015590830151909150600282019061102b90826126b6565b506060820151600382018054608085015160a08601511515600160501b0260ff60501b1961ffff909216600160401b0269ffffffffffffffffffff199093166001600160401b0390951694909417919091171691909117905560c0820151600482019061109890826126b6565b509050506110a68982611749565b886001600160a01b0316817f3d800b867b433b2e8240ce323693c9fa286158c369d66db0b047f69396b6c1c08a8a8a6040516110e493929190612771565b60405180910390a398975050505050505050565b5f6111028461128f565b90506001600160a01b038116331461113657604051630da7a30b60e31b815260048101859052336024820152604401610613565b5f848152600c602090815260408083206001600160a01b03871680855290835292819020805460ff1916861515908117909155905190815286917f15727a9abb85992e3370afbc575873719e6174788e782c88ce6f29445024cce6910160405180910390a350505050565b60606111ac8261128f565b505f828152600a6020908152604090912054906111ca908290611766565b6040516020016111da91906127a8565b604051602081830303815290604052915050919050565b6001600160a01b039182165f90815260056020908152604080832093909416825291909152205460ff1690565b6112266112f1565b600780546001600160a01b0383166001600160a01b031990911681179091556112576006546001600160a01b031690565b6001600160a01b03167f38d16b8cac22d99fc7c124b9cd0de2d3fa1faef420bfe791d8c362d765e2270060405160405180910390a350565b5f818152600260205260408120546001600160a01b0316806104ef57604051637e27328960e01b815260048101849052602401610613565b6002600854036112ea57604051633ee5aeb560e01b815260040160405180910390fd5b6002600855565b6006546001600160a01b03163314610a505760405163118cdaa760e01b8152336004820152602401610613565b600780546001600160a01b0319169055610a93816118df565b85600181111561134957611349612816565b8751600181111561135c5761135c612816565b1461137e57865160405163ed95221f60e01b815261061391889160040161284a565b848760200151146113b2576020870151604051634fa09b3f60e01b8152610613918791600401918252602082015260400190565b836001600160a01b031687604001516001600160a01b0316146114015760408088015190516309f46b2160e41b81526001600160a01b0380871660048301529091166024820152604401610613565b826001600160a01b031687606001516001600160a01b031614611450576060870151604051634c025bc160e01b81526001600160a01b0380861660048301529091166024820152604401610613565b8187608001511461148457608087015160405163059c828160e11b8152610613918491600401918252602082015260400190565b808760a00151146114b85760a0870151604051636f205f0f60e11b8152610613918391600401918252602082015260400190565b5f858152600b602052604090205460c088015181146114fa5760c08801516040516306427aeb60e01b8152610613918391600401918252602082015260400190565b8760e0015151604114611529578760e00151516040516376f0ccb160e11b815260040161061391815260200190565b5f7f216d544531bbd4fb0f86335689866da1878439ae274410f7780891b62c50038f895f0151600181111561156057611560612816565b8a602001518b604001518c606001518d608001518e60a001518f60c001516040516020016115d398979695949392919097885260ff96909616602088015260408701949094526001600160a01b0392831660608701529116608085015260a084015260c083015260e08201526101000190565b6040516020818303038152906040528051906020012090505f6115f46108ab565b60405161190160f01b60208201526022810191909152604281018390526062016040516020818303038152906040528051906020012090505f8061163c838d60e00151611930565b5090925090505f81600381111561165557611655612816565b14158061167057506009546001600160a01b03838116911614155b1561168e576040516350cf9f5160e11b815260040160405180910390fd5b505050505050505050505050565b6001600160a01b0382166116c557604051633250574960e11b81525f6004820152602401610613565b5f6116d183835f611979565b90506001600160a01b0381166116fd57604051637e27328960e01b815260048101839052602401610613565b836001600160a01b0316816001600160a01b031614610e63576040516364283d7b60e01b81526001600160a01b0380861660048301526024820184905282166044820152606401610613565b611762828260405180602001604052805f815250611a6d565b5050565b6060825f611775846002612865565b61178090600261287c565b6001600160401b0381111561179757611797612325565b6040519080825280601f01601f1916602001820160405280156117c1576020820181803683370190505b509050600360fc1b815f815181106117db576117db61288f565b60200101906001600160f81b03191690815f1a905350600f60fb1b816001815181106118095761180961288f565b60200101906001600160f81b03191690815f1a9053505f61182b856002612865565b61183690600161287c565b90505b60018111156118ad576f181899199a1a9b1b9c1cb0b131b232b360811b83600f166010811061186a5761186a61288f565b1a60f81b8282815181106118805761188061288f565b60200101906001600160f81b03191690815f1a90535060049290921c916118a6816128a3565b9050611839565b5081156118d75760405163e22e27eb60e01b81526004810186905260248101859052604401610613565b949350505050565b600680546001600160a01b038381166001600160a01b0319831681179093556040519116919082907f8be0079c531659141344cd1fd0a4f28419497f9722a3daafe3b4186f6b6457e0905f90a35050565b5f805f8351604103611967576020840151604085015160608601515f1a61195988828585611a84565b955095509550505050611972565b505081515f91506002905b9250925092565b5f828152600260205260408120546001600160a01b03908116908316156119a5576119a5818486611b4c565b6001600160a01b038116156119df576119c05f855f80611bb0565b6001600160a01b0381165f90815260036020526040902080545f190190555b6001600160a01b03851615611a0d576001600160a01b0385165f908152600360205260409020805460010190555b5f8481526002602052604080822080546001600160a01b0319166001600160a01b0389811691821790925591518793918516917fddf252ad1be2c89b69c2b068fc378daa952ba7f163c4a11628f55a4df523b3ef91a490505b9392505050565b611a778383611cb4565b6106d6335f858585611d15565b5f80807f7fffffffffffffffffffffffffffffff5d576e7357a4501ddfe92f46681b20a0841115611abd57505f91506003905082611b42565b604080515f808252602082018084528a905260ff891692820192909252606081018790526080810186905260019060a0016020604051602081039080840390855afa158015611b0e573d5f803e3d5ffd5b5050604051601f1901519150506001600160a01b038116611b3957505f925060019150829050611b42565b92505f91508190505b9450945094915050565b611b57838383611e3d565b6106d6576001600160a01b038316611b8557604051637e27328960e01b815260048101829052602401610613565b60405163177e802f60e01b81526001600160a01b038316600482015260248101829052604401610613565b8080611bc457506001600160a01b03821615155b15611c85575f611bd38461128f565b90506001600160a01b03831615801590611bff5750826001600160a01b0316816001600160a01b031614155b8015611c125750611c1081846111f1565b155b15611c3b5760405163a9fbf51f60e01b81526001600160a01b0384166004820152602401610613565b8115611c835783856001600160a01b0316826001600160a01b03167f8c5be1e5ebec7d5bd14f71427d1e84f3dd0314c0f7b2291e5b200ac8c7c3b92560405160405180910390a45b505b50505f90815260046020526040902080546001600160a01b0319166001600160a01b0392909216919091179055565b6001600160a01b038216611cdd57604051633250574960e11b81525f6004820152602401610613565b5f611ce983835f611979565b90506001600160a01b038116156106d6576040516339e3563760e11b81525f6004820152602401610613565b6001600160a01b0383163b15611e3657604051630a85bd0160e11b81526001600160a01b0384169063150b7a0290611d579088908890879087906004016128b8565b6020604051808303815f875af1925050508015611d91575060408051601f3d908101601f19168201909252611d8e918101906128f4565b60015b611df8573d808015611dbe576040519150601f19603f3d011682016040523d82523d5f602084013e611dc3565b606091505b5080515f03611df057604051633250574960e11b81526001600160a01b0385166004820152602401610613565b805181602001fd5b6001600160e01b03198116630a85bd0160e11b14611e3457604051633250574960e11b81526001600160a01b0385166004820152602401610613565b505b5050505050565b5f6001600160a01b038316158015906118d75750826001600160a01b0316846001600160a01b03161480611e765750611e7684846111f1565b806118d75750505f908152600460205260409020546001600160a01b03908116911614919050565b508054611eaa90612475565b5f825580601f10611eb9575050565b601f0160209004905f5260205f2090810190610a9391905b80821115611ee4575f8155600101611ed1565b5090565b6001600160e01b031981168114610a93575f80fd5b5f60208284031215611f0d575f80fd5b8135611a6681611ee8565b5f5b83811015611f32578181015183820152602001611f1a565b50505f910152565b5f8151808452611f51816020860160208601611f18565b601f01601f19169290920160200192915050565b602081525f611a666020830184611f3a565b5f60208284031215611f87575f80fd5b5035919050565b80356001600160a01b0381168114611fa4575f80fd5b919050565b5f8060408385031215611fba575f80fd5b611fc383611f8e565b946020939093013593505050565b5f805f60608486031215611fe3575f80fd5b83359250611ff360208501611f8e565b9150604084013590509250925092565b5f805f60608486031215612015575f80fd5b61201e84611f8e565b9250611ff360208501611f8e565b6020815281516020820152602082015160408201525f604083015160e0606084015261205c610100840182611f3a565b90506001600160401b03606085015116608084015261ffff60808501511660a084015260a0840151151560c084015260c0840151601f198483030160e08501526120a68282611f3a565b95945050505050565b5f80604083850312156120c0575f80fd5b823591506120d060208401611f8e565b90509250929050565b5f602082840312156120e9575f80fd5b611a6682611f8e565b5f8083601f840112612102575f80fd5b5081356001600160401b03811115612118575f80fd5b60208301915083602082850101111561212f575f80fd5b9250929050565b5f805f805f805f60a0888a03121561214c575f80fd5b61215588611f8e565b9650602088013595506040880135945060608801356001600160401b038082111561217e575f80fd5b61218a8b838c016120f2565b909650945060808a01359150808211156121a2575f80fd5b506121af8a828b016120f2565b989b979a50959850939692959293505050565b5f805f80606085870312156121d5575f80fd5b843593506020850135925060408501356001600160401b038111156121f8575f80fd5b612204878288016120f2565b95989497509550505050565b80358015158114611fa4575f80fd5b5f8060408385031215612230575f80fd5b61223983611f8e565b91506120d060208401612210565b5f805f805f805f8060c0898b03121561225e575f80fd5b61226789611f8e565b975060208901356001600160401b0380821115612282575f80fd5b61228e8c838d016120f2565b909950975060408b0135965060608b0135955060808b01359150808211156122b4575f80fd5b506122c18b828c016120f2565b90945092505060a089013561ffff811681146122db575f80fd5b809150509295985092959890939650565b5f805f606084860312156122fe575f80fd5b8335925061230e60208501611f8e565b915061231c60408501612210565b90509250925092565b634e487b7160e01b5f52604160045260245ffd5b60405161010081016001600160401b038111828210171561235c5761235c612325565b60405290565b5f82601f830112612371575f80fd5b81356001600160401b038082111561238b5761238b612325565b604051601f8301601f19908116603f011681019082821181831017156123b3576123b3612325565b816040528381528660208588010111156123cb575f80fd5b836020870160208301375f602085830101528094505050505092915050565b5f805f80608085870312156123fd575f80fd5b61240685611f8e565b935061241460208601611f8e565b92506040850135915060608501356001600160401b03811115612435575f80fd5b61244187828801612362565b91505092959194509250565b5f806040838503121561245e575f80fd5b61246783611f8e565b91506120d060208401611f8e565b600181811c9082168061248957607f821691505b6020821081036124a757634e487b7160e01b5f52602260045260245ffd5b50919050565b803560028110611fa4575f80fd5b5f602082840312156124cb575f80fd5b81356001600160401b03808211156124e1575f80fd5b9083019061010082860312156124f5575f80fd5b6124fd612339565b612506836124ad565b81526020830135602082015261251e60408401611f8e565b604082015261252f60608401611f8e565b60608201526080830135608082015260a083013560a082015260c083013560c082015260e083013582811115612563575f80fd5b61256f87828601612362565b60e08301525095945050505050565b818382375f9101908152919050565b601f8211156106d657805f5260205f20601f840160051c810160208510156125b25750805b601f840160051c820191505b81811015611e36575f81556001016125be565b6001600160401b038311156125e8576125e8612325565b6125fc836125f68354612475565b8361258d565b5f601f84116001811461262d575f85156126165750838201355b5f19600387901b1c1916600186901b178355611e36565b5f83815260208120601f198716915b8281101561265c578685013582556020948501946001909201910161263c565b5086821015612678575f1960f88860031b161c19848701351681555b505060018560011b0183555050505050565b634e487b7160e01b5f52601160045260245ffd5b5f600182016126af576126af61268a565b5060010190565b81516001600160401b038111156126cf576126cf612325565b6126e3816126dd8454612475565b8461258d565b602080601f831160018114612716575f84156126ff5750858301515b5f19600386901b1c1916600185901b178555611e34565b5f85815260208120601f198616915b8281101561274457888601518255948401946001909101908401612725565b508582101561276157878501515f19600388901b60f8161c191681555b5050505050600190811b01905550565b60408152826040820152828460608301375f606084830101525f6060601f19601f8601168301019050826020830152949350505050565b7f646174613a6170706c69636174696f6e2f6a736f6e2c2537422532326d6574618152703230ba30a430b9b41299191299a092991960791b60208201525f82516127f9816031850160208701611f18565b65094c8c894dd160d21b6031939091019283015250603701919050565b634e487b7160e01b5f52602160045260245ffd5b6002811061284657634e487b7160e01b5f52602160045260245ffd5b9052565b60408101612858828561282a565b611a66602083018461282a565b80820281158282048414176104ef576104ef61268a565b808201808211156104ef576104ef61268a565b634e487b7160e01b5f52603260045260245ffd5b5f816128b1576128b161268a565b505f190190565b6001600160a01b03858116825284166020820152604081018390526080606082018190525f906128ea90830184611f3a565b9695505050505050565b5f60208284031215612904575f80fd5b8151611a6681611ee856fea2646970667358221220b4996e28e7878e4c543d10133e500ee019af9f34b0da2307126ceb45b52e73cb64736f6c63430008180033","linkReferences":{}},"methodIdentifiers":{"DOMAIN_SEPARATOR()":"3644e515","MAX_ROLE_BYTES()":"e83e1e13","MAX_ROYALTY_BPS()":"3dca40e6","MAX_WRAPPED_DEK_BYTES()":"e19734c1","acceptOwnership()":"79ba5097","approve(address,uint256)":"095ea7b3","authorizeUsage(uint256,address,bool)":"b74078ee","balanceOf(address)":"70a08231","getAgent(uint256)":"2de5aaf7","getApproved(uint256)":"081812fc","isApprovedForAll(address,address)":"e985e9c5","mint(address,string,bytes32,bytes32,bytes,uint16)":"a656be53","name()":"06fdde03","oracle()":"7dc0d1d0","owner()":"8da5cb5b","ownerOf(uint256)":"6352211e","pendingOwner()":"e30c3978","recordUsage(uint256,address,uint256)":"21f864a5","renounceOwnership()":"715018a6","revocationRegistry()":"f0f2740d","revoke(uint256,bytes32,bytes)":"89b4b87a","safeTransferFrom(address,address,uint256)":"42842e0e","safeTransferFrom(address,address,uint256,bytes)":"b88d4fde","setApprovalForAll(address,bool)":"a22cb465","setOracle(address)":"7adbf973","supportsInterface(bytes4)":"01ffc9a7","symbol()":"95d89b41","tokenNonce(uint256)":"4cad0f67","tokenURI(uint256)":"c87b56dd","transferFrom(address,address,uint256)":"23b872dd","transferOwnership(address)":"f2fde38b","transferWithReencryption(address,uint256,bytes32,bytes,bytes)":"8320085d","usageAuthorized(uint256,address)":"5ddf9096"},"id":18}