{"abi":[{"type":"constructor","inputs":[{"name":"_agentNFT","type":"address","internalType":"address"}],"stateMutability":"nonpayable"},{"type":"function","name":"DESTROYED_SENTINEL","inputs":[],"outputs":[{"name":"","type":"bytes32","internalType":"bytes32"}],"stateMutability":"view"},{"type":"function","name":"agentNFT","inputs":[],"outputs":[{"name":"","type":"address","internalType":"address"}],"stateMutability":"view"},{"type":"function","name":"getRevocation","inputs":[{"name":"tokenId","type":"uint256","internalType":"uint256"}],"outputs":[{"name":"","type":"tuple","internalType":"struct IMemoryRevocation.Revocation","components":[{"name":"tokenId","type":"uint256","internalType":"uint256"},{"name":"oldKeyHash","type":"bytes32","internalType":"bytes32"},{"name":"newKeyHash","type":"bytes32","internalType":"bytes32"},{"name":"timestamp","type":"uint64","internalType":"uint64"},{"name":"revokedBy","type":"address","internalType":"address"}]}],"stateMutability":"view"},{"type":"function","name":"isRevoked","inputs":[{"name":"tokenId","type":"uint256","internalType":"uint256"}],"outputs":[{"name":"","type":"bool","internalType":"bool"}],"stateMutability":"view"},{"type":"function","name":"revoke","inputs":[{"name":"tokenId","type":"uint256","internalType":"uint256"},{"name":"oldKeyHash","type":"bytes32","internalType":"bytes32"},{"name":"revokedBy","type":"address","internalType":"address"}],"outputs":[],"stateMutability":"nonpayable"},{"type":"event","name":"Revoked","inputs":[{"name":"tokenId","type":"uint256","indexed":true,"internalType":"uint256"},{"name":"revokedBy","type":"address","indexed":true,"internalType":"address"},{"name":"oldKeyHash","type":"bytes32","indexed":false,"internalType":"bytes32"},{"name":"timestamp","type":"uint64","indexed":false,"internalType":"uint64"}],"anonymous":false},{"type":"error","name":"AlreadyRevoked","inputs":[{"name":"tokenId","type":"uint256","internalType":"uint256"}]},{"type":"error","name":"InvalidAgentNFT","inputs":[]},{"type":"error","name":"NotAgentNFT","inputs":[{"name":"caller","type":"address","internalType":"address"}]},{"type":"error","name":"NotRevoked","inputs":[{"name":"tokenId","type":"uint256","internalType":"uint256"}]}],"bytecode":{"object":"0x60a060405234801561000f575f80fd5b506040516104f03803806104f083398101604081905261002e91610066565b6001600160a01b03811661005557604051631b018f4b60e11b815260040160405180910390fd5b6001600160a01b0316608052610093565b5f60208284031215610076575f80fd5b81516001600160a01b038116811461008c575f80fd5b9392505050565b60805161043f6100b15f395f818160ad0152610193015261043f5ff3fe608060405234801561000f575f80fd5b5060043610610055575f3560e01c806304c72c19146100595780631db4952d146100935780633fd773e9146100a85780635ccc561e146100e7578063c962f63414610125575b5f80fd5b6100807fc78521db9320d6ed150f1f1837dce951a1d43d23446b7d8914edc3407b28def181565b6040519081526020015b60405180910390f35b6100a66100a13660046103b1565b610188565b005b6100cf7f000000000000000000000000000000000000000000000000000000000000000081565b6040516001600160a01b03909116815260200161008a565b6101156100f53660046103f2565b5f9081526020819052604090206003015467ffffffffffffffff16151590565b604051901515815260200161008a565b6101386101333660046103f2565b610300565b60405161008a919081518152602080830151908201526040808301519082015260608083015167ffffffffffffffff16908201526080918201516001600160a01b03169181019190915260a00190565b336001600160a01b037f000000000000000000000000000000000000000000000000000000000000000016146101d8576040516305304b0b60e21b81523360048201526024015b60405180910390fd5b5f8381526020819052604090206003015467ffffffffffffffff16156102145760405163e80455f560e01b8152600481018490526024016101cf565b6040805160a08101825284815260208082018581527fc78521db9320d6ed150f1f1837dce951a1d43d23446b7d8914edc3407b28def183850190815267ffffffffffffffff42818116606087018181526001600160a01b038a811660808a018181525f8f8152808b528c90209a518b55975160018b0155955160028a01559051600390980180549651909116600160401b026001600160e01b031990961697909316969096179390931790558451878152928301939093529286917f6877004996916675deadf099b510419ebb4d319aa3ca13737b34bf69493f4014910160405180910390a350505050565b6040805160a0810182525f808252602082018190529181018290526060810182905260808101919091525f82815260208181526040808320815160a081018352815481526001820154938101939093526002810154918301919091526003015467ffffffffffffffff811660608301819052600160401b9091046001600160a01b031660808301529091036103ab5760405163595fd94b60e01b8152600481018490526024016101cf565b92915050565b5f805f606084860312156103c3575f80fd5b833592506020840135915060408401356001600160a01b03811681146103e7575f80fd5b809150509250925092565b5f60208284031215610402575f80fd5b503591905056fea2646970667358221220550275b43cb14b5c4ab3332822586846ace9d0e3ada8125b767d12c1c6679d6364736f6c63430008180033","linkReferences":{}},"methodIdentifiers":{"DESTROYED_SENTINEL()":"04c72c19","agentNFT()":"3fd773e9","getRevocation(uint256)":"c962f634","isRevoked(uint256)":"5ccc561e","revoke(uint256,bytes32,address)":"1db4952d"},"id":19}